{
  "_format": "hh-sol-artifact-1",
  "contractName": "TokenVesting",
  "sourceName": "contracts/TokenVesting.sol",
  "abi": [
    {
      "inputs": [
        {
          "internalType": "address",
          "name": "_token",
          "type": "address"
        }
      ],
      "stateMutability": "nonpayable",
      "type": "constructor"
    },
    {
      "inputs": [
        {
          "internalType": "address",
          "name": "owner",
          "type": "address"
        }
      ],
      "name": "OwnableInvalidOwner",
      "type": "error"
    },
    {
      "inputs": [
        {
          "internalType": "address",
          "name": "account",
          "type": "address"
        }
      ],
      "name": "OwnableUnauthorizedAccount",
      "type": "error"
    },
    {
      "inputs": [],
      "name": "ReentrancyGuardReentrantCall",
      "type": "error"
    },
    {
      "anonymous": false,
      "inputs": [
        {
          "indexed": true,
          "internalType": "address",
          "name": "signer",
          "type": "address"
        },
        {
          "indexed": false,
          "internalType": "string",
          "name": "ipfsHash",
          "type": "string"
        },
        {
          "indexed": false,
          "internalType": "uint256",
          "name": "timestamp",
          "type": "uint256"
        }
      ],
      "name": "AgreementSigned",
      "type": "event"
    },
    {
      "anonymous": false,
      "inputs": [
        {
          "indexed": true,
          "internalType": "address",
          "name": "previousOwner",
          "type": "address"
        },
        {
          "indexed": true,
          "internalType": "address",
          "name": "newOwner",
          "type": "address"
        }
      ],
      "name": "OwnershipTransferred",
      "type": "event"
    },
    {
      "anonymous": false,
      "inputs": [
        {
          "indexed": true,
          "internalType": "address",
          "name": "beneficiary",
          "type": "address"
        },
        {
          "indexed": false,
          "internalType": "uint256",
          "name": "amount",
          "type": "uint256"
        }
      ],
      "name": "TokensReleased",
      "type": "event"
    },
    {
      "anonymous": false,
      "inputs": [
        {
          "indexed": true,
          "internalType": "address",
          "name": "beneficiary",
          "type": "address"
        },
        {
          "indexed": false,
          "internalType": "uint256",
          "name": "totalAmount",
          "type": "uint256"
        },
        {
          "indexed": false,
          "internalType": "uint256",
          "name": "startTime",
          "type": "uint256"
        },
        {
          "indexed": false,
          "internalType": "uint256",
          "name": "vestingDuration",
          "type": "uint256"
        }
      ],
      "name": "VestingScheduleCreated",
      "type": "event"
    },
    {
      "inputs": [
        {
          "internalType": "address",
          "name": "",
          "type": "address"
        }
      ],
      "name": "agreements",
      "outputs": [
        {
          "internalType": "string",
          "name": "ipfsHash",
          "type": "string"
        },
        {
          "internalType": "address",
          "name": "signer",
          "type": "address"
        },
        {
          "internalType": "uint256",
          "name": "timestamp",
          "type": "uint256"
        },
        {
          "internalType": "bool",
          "name": "isSigned",
          "type": "bool"
        }
      ],
      "stateMutability": "view",
      "type": "function"
    },
    {
      "inputs": [
        {
          "internalType": "address",
          "name": "_beneficiary",
          "type": "address"
        }
      ],
      "name": "calculateReleasableAmount",
      "outputs": [
        {
          "internalType": "uint256",
          "name": "",
          "type": "uint256"
        }
      ],
      "stateMutability": "view",
      "type": "function"
    },
    {
      "inputs": [
        {
          "internalType": "address",
          "name": "_beneficiary",
          "type": "address"
        },
        {
          "internalType": "uint256",
          "name": "_totalAmount",
          "type": "uint256"
        },
        {
          "internalType": "uint256",
          "name": "_startTime",
          "type": "uint256"
        },
        {
          "internalType": "uint256",
          "name": "_vestingDuration",
          "type": "uint256"
        }
      ],
      "name": "createVestingSchedule",
      "outputs": [],
      "stateMutability": "nonpayable",
      "type": "function"
    },
    {
      "inputs": [
        {
          "internalType": "uint256",
          "name": "_amount",
          "type": "uint256"
        }
      ],
      "name": "emergencyWithdraw",
      "outputs": [],
      "stateMutability": "nonpayable",
      "type": "function"
    },
    {
      "inputs": [
        {
          "internalType": "address",
          "name": "_signer",
          "type": "address"
        }
      ],
      "name": "getAgreement",
      "outputs": [
        {
          "components": [
            {
              "internalType": "string",
              "name": "ipfsHash",
              "type": "string"
            },
            {
              "internalType": "address",
              "name": "signer",
              "type": "address"
            },
            {
              "internalType": "uint256",
              "name": "timestamp",
              "type": "uint256"
            },
            {
              "internalType": "bool",
              "name": "isSigned",
              "type": "bool"
            }
          ],
          "internalType": "struct TokenVesting.Agreement",
          "name": "",
          "type": "tuple"
        }
      ],
      "stateMutability": "view",
      "type": "function"
    },
    {
      "inputs": [
        {
          "internalType": "address",
          "name": "_beneficiary",
          "type": "address"
        }
      ],
      "name": "getVestingSchedule",
      "outputs": [
        {
          "components": [
            {
              "internalType": "address",
              "name": "beneficiary",
              "type": "address"
            },
            {
              "internalType": "uint256",
              "name": "totalAmount",
              "type": "uint256"
            },
            {
              "internalType": "uint256",
              "name": "startTime",
              "type": "uint256"
            },
            {
              "internalType": "uint256",
              "name": "vestingDuration",
              "type": "uint256"
            },
            {
              "internalType": "uint256",
              "name": "releasedAmount",
              "type": "uint256"
            },
            {
              "internalType": "bool",
              "name": "isActive",
              "type": "bool"
            }
          ],
          "internalType": "struct TokenVesting.VestingSchedule",
          "name": "",
          "type": "tuple"
        }
      ],
      "stateMutability": "view",
      "type": "function"
    },
    {
      "inputs": [],
      "name": "owner",
      "outputs": [
        {
          "internalType": "address",
          "name": "",
          "type": "address"
        }
      ],
      "stateMutability": "view",
      "type": "function"
    },
    {
      "inputs": [],
      "name": "releaseTokens",
      "outputs": [],
      "stateMutability": "nonpayable",
      "type": "function"
    },
    {
      "inputs": [],
      "name": "renounceOwnership",
      "outputs": [],
      "stateMutability": "nonpayable",
      "type": "function"
    },
    {
      "inputs": [
        {
          "internalType": "string",
          "name": "_ipfsHash",
          "type": "string"
        }
      ],
      "name": "signAgreement",
      "outputs": [],
      "stateMutability": "nonpayable",
      "type": "function"
    },
    {
      "inputs": [],
      "name": "token",
      "outputs": [
        {
          "internalType": "contract IERC20",
          "name": "",
          "type": "address"
        }
      ],
      "stateMutability": "view",
      "type": "function"
    },
    {
      "inputs": [
        {
          "internalType": "address",
          "name": "newOwner",
          "type": "address"
        }
      ],
      "name": "transferOwnership",
      "outputs": [],
      "stateMutability": "nonpayable",
      "type": "function"
    },
    {
      "inputs": [
        {
          "internalType": "address",
          "name": "",
          "type": "address"
        }
      ],
      "name": "vestingSchedules",
      "outputs": [
        {
          "internalType": "address",
          "name": "beneficiary",
          "type": "address"
        },
        {
          "internalType": "uint256",
          "name": "totalAmount",
          "type": "uint256"
        },
        {
          "internalType": "uint256",
          "name": "startTime",
          "type": "uint256"
        },
        {
          "internalType": "uint256",
          "name": "vestingDuration",
          "type": "uint256"
        },
        {
          "internalType": "uint256",
          "name": "releasedAmount",
          "type": "uint256"
        },
        {
          "internalType": "bool",
          "name": "isActive",
          "type": "bool"
        }
      ],
      "stateMutability": "view",
      "type": "function"
    }
  ],
  "bytecode": "0x60a060405234801561001057600080fd5b50604051620015a0380380620015a08339810160408190526100319161011d565b338061005857604051631e4fbdf760e01b8152600060048201526024015b60405180910390fd5b610061816100cd565b50600180556001600160a01b0381166100bc5760405162461bcd60e51b815260206004820152601c60248201527f546f6b656e20616464726573732063616e6e6f74206265207a65726f00000000604482015260640161004f565b6001600160a01b031660805261014d565b600080546001600160a01b038381166001600160a01b0319831681178455604051919092169283917f8be0079c531659141344cd1fd0a4f28419497f9722a3daafe3b4186f6b6457e09190a35050565b60006020828403121561012f57600080fd5b81516001600160a01b038116811461014657600080fd5b9392505050565b6080516114226200017e6000396000818161022e015281816106ad015281816108230152610ddc01526114226000f3fe608060405234801561001057600080fd5b50600436106100cf5760003560e01c80639f8290631161008c578063a96f866811610066578063a96f86681461020e578063f2fde38b14610216578063fc0c546a14610229578063fdb20ccb1461025057600080fd5b80639f82906314610175578063a11c1d51146101da578063a944e843146101ed57600080fd5b8063295c1fed146100d45780633ce2aa99146100fd5780633f4e8e80146101205780635312ea8e14610135578063715018a6146101485780638da5cb5b14610150575b600080fd5b6100e76100e2366004610faa565b6102db565b6040516100f49190611012565b60405180910390f35b61011061010b366004610faa565b6103e6565b6040516100f49493929190611062565b61013361012e36600461109c565b6104a5565b005b6101336101433660046110d5565b610819565b6101336108f2565b6000546001600160a01b03165b6040516001600160a01b0390911681526020016100f4565b610188610183366004610faa565b610906565b6040516100f4919081516001600160a01b031681526020808301519082015260408083015190820152606080830151908201526080808301519082015260a09182015115159181019190915260c00190565b6101336101e8366004611104565b6109b3565b6102006101fb366004610faa565b610b2c565b6040519081526020016100f4565b610133610c27565b610133610224366004610faa565b610eac565b61015d7f000000000000000000000000000000000000000000000000000000000000000081565b6102a261025e366004610faa565b60026020819052600091825260409091208054600182015492820154600383015460048401546005909401546001600160a01b039093169493919290919060ff1686565b604080516001600160a01b03909716875260208701959095529385019290925260608401526080830152151560a082015260c0016100f4565b6040805160808101825260608082526000602083018190529282018390528101919091526001600160a01b03821660009081526003602052604090819020815160808101909252805482908290610331906111b5565b80601f016020809104026020016040519081016040528092919081815260200182805461035d906111b5565b80156103aa5780601f1061037f576101008083540402835291602001916103aa565b820191906000526020600020905b81548152906001019060200180831161038d57829003601f168201915b505050918352505060018201546001600160a01b031660208201526002820154604082015260039091015460ff16151560609091015292915050565b600360205260009081526040902080548190610401906111b5565b80601f016020809104026020016040519081016040528092919081815260200182805461042d906111b5565b801561047a5780601f1061044f5761010080835404028352916020019161047a565b820191906000526020600020905b81548152906001019060200180831161045d57829003601f168201915b505050506001830154600284015460039094015492936001600160a01b039091169290915060ff1684565b6104ad610ee7565b6001600160a01b0384166105135760405162461bcd60e51b815260206004820152602260248201527f42656e65666963696172792063616e6e6f74206265207a65726f206164647265604482015261737360f01b60648201526084015b60405180910390fd5b6000831161056f5760405162461bcd60e51b815260206004820152602360248201527f546f74616c20616d6f756e74206d75737420626520677265617465722074686160448201526206e20360ec1b606482015260840161050a565b600081116105cf5760405162461bcd60e51b815260206004820152602760248201527f56657374696e67206475726174696f6e206d75737420626520677265617465726044820152660207468616e20360cc1b606482015260840161050a565b4282101561061f5760405162461bcd60e51b815260206004820181905260248201527f53746172742074696d652063616e6e6f7420626520696e207468652070617374604482015260640161050a565b6001600160a01b03841660009081526002602052604090206005015460ff161561068b5760405162461bcd60e51b815260206004820152601f60248201527f56657374696e67207363686564756c6520616c72656164792065786973747300604482015260640161050a565b6040516323b872dd60e01b8152336004820152306024820152604481018490527f00000000000000000000000000000000000000000000000000000000000000006001600160a01b0316906323b872dd906064016020604051808303816000875af11580156106fe573d6000803e3d6000fd5b505050506040513d601f19601f8201168201806040525081019061072291906111ef565b61073e5760405162461bcd60e51b815260040161050a90611211565b6040805160c0810182526001600160a01b0386811680835260208084018881528486018881526060808701898152600060808901818152600160a08b018181528984526002808a52938d90209b518c546001600160a01b0319169b169a909a178b559551958a0195909555925192880192909255905160038701559051600486015592516005909401805460ff19169415159490941790935583518781529283018690529282018490527f892f1a841b10e4b041cc41d8cc47c6a6049f1ff5fa272ddf47a0aa5ad8f59d13910160405180910390a250505050565b610821610ee7565b7f00000000000000000000000000000000000000000000000000000000000000006001600160a01b031663a9059cbb6108626000546001600160a01b031690565b6040516001600160e01b031960e084901b1681526001600160a01b039091166004820152602481018490526044016020604051808303816000875af11580156108af573d6000803e3d6000fd5b505050506040513d601f19601f820116820180604052508101906108d391906111ef565b6108ef5760405162461bcd60e51b815260040161050a90611211565b50565b6108fa610ee7565b6109046000610f14565b565b61094a6040518060c0016040528060006001600160a01b03168152602001600081526020016000815260200160008152602001600081526020016000151581525090565b506001600160a01b03908116600090815260026020818152604092839020835160c08101855281549095168552600181015491850191909152908101549183019190915260038101546060830152600481015460808301526005015460ff16151560a082015290565b6000815111610a045760405162461bcd60e51b815260206004820152601960248201527f4950465320686173682063616e6e6f7420626520656d70747900000000000000604482015260640161050a565b3360009081526002602052604090206005015460ff16610a665760405162461bcd60e51b815260206004820152601a60248201527f4e6f206163746976652076657374696e67207363686564756c65000000000000604482015260640161050a565b604080516080810182528281523360208083018290524283850152600160608401526000918252600390529190912081518190610aa3908261128f565b5060208201516001820180546001600160a01b0319166001600160a01b0390921691909117905560408083015160028301556060909201516003909101805460ff19169115159190911790555133907f936e2541a4e2c54209274fd4586c75a03492cd84ee5e2cd68b9fc0d1c500e7e190610b21908490429061134f565b60405180910390a250565b6001600160a01b038082166000908152600260208181526040808420815160c08101835281549096168652600181015492860192909252918101549184019190915260038101546060840152600481015460808401526005015460ff1615801560a084015290919080610ba25750806040015142105b15610bb05750600092915050565b6000816040015142610bc29190611387565b905081606001518110610beb5781608001518260200151610be39190611387565b949350505050565b60008260600151828460200151610c0291906113a0565b610c0c91906113b7565b9050826080015181610c1e9190611387565b95945050505050565b336000818152600260205260409020546001600160a01b031614610c815760405162461bcd60e51b81526020600482015260116024820152704e6f7420612062656e656669636961727960781b604482015260640161050a565b3360009081526002602052604090206005015460ff16610ce35760405162461bcd60e51b815260206004820152601b60248201527f56657374696e67207363686564756c65206e6f74206163746976650000000000604482015260640161050a565b610ceb610f64565b336000908152600360208190526040909120015460ff16610d455760405162461bcd60e51b81526020600482015260146024820152731059dc99595b595b9d081b9bdd081cda59db995960621b604482015260640161050a565b6000610d5033610b2c565b905060008111610d995760405162461bcd60e51b81526020600482015260146024820152734e6f20746f6b656e7320746f2072656c6561736560601b604482015260640161050a565b3360009081526002602052604081206004018054839290610dbb9084906113d9565b909155505060405163a9059cbb60e01b8152336004820152602481018290527f00000000000000000000000000000000000000000000000000000000000000006001600160a01b03169063a9059cbb906044016020604051808303816000875af1158015610e2d573d6000803e3d6000fd5b505050506040513d601f19601f82011682018060405250810190610e5191906111ef565b610e6d5760405162461bcd60e51b815260040161050a90611211565b60405181815233907fc7798891864187665ac6dd119286e44ec13f014527aeeb2b8eb3fd413df931799060200160405180910390a25061090460018055565b610eb4610ee7565b6001600160a01b038116610ede57604051631e4fbdf760e01b81526000600482015260240161050a565b6108ef81610f14565b6000546001600160a01b031633146109045760405163118cdaa760e01b815233600482015260240161050a565b600080546001600160a01b038381166001600160a01b0319831681178455604051919092169283917f8be0079c531659141344cd1fd0a4f28419497f9722a3daafe3b4186f6b6457e09190a35050565b600260015403610f8757604051633ee5aeb560e01b815260040160405180910390fd5b6002600155565b80356001600160a01b0381168114610fa557600080fd5b919050565b600060208284031215610fbc57600080fd5b610fc582610f8e565b9392505050565b6000815180845260005b81811015610ff257602081850181015186830182015201610fd6565b506000602082860101526020601f19601f83011685010191505092915050565b60208152600082516080602084015261102e60a0840182610fcc565b905060018060a01b036020850151166040840152604084015160608401526060840151151560808401528091505092915050565b6080815260006110756080830187610fcc565b6001600160a01b039590951660208301525060408101929092521515606090910152919050565b600080600080608085870312156110b257600080fd5b6110bb85610f8e565b966020860135965060408601359560600135945092505050565b6000602082840312156110e757600080fd5b5035919050565b634e487b7160e01b600052604160045260246000fd5b60006020828403121561111657600080fd5b813567ffffffffffffffff8082111561112e57600080fd5b818401915084601f83011261114257600080fd5b813581811115611154576111546110ee565b604051601f8201601f19908116603f0116810190838211818310171561117c5761117c6110ee565b8160405282815287602084870101111561119557600080fd5b826020860160208301376000928101602001929092525095945050505050565b600181811c908216806111c957607f821691505b6020821081036111e957634e487b7160e01b600052602260045260246000fd5b50919050565b60006020828403121561120157600080fd5b81518015158114610fc557600080fd5b602080825260159082015274151bdad95b881d1c985b9cd9995c8819985a5b1959605a1b604082015260600190565b601f82111561128a57600081815260208120601f850160051c810160208610156112675750805b601f850160051c820191505b8181101561128657828155600101611273565b5050505b505050565b815167ffffffffffffffff8111156112a9576112a96110ee565b6112bd816112b784546111b5565b84611240565b602080601f8311600181146112f257600084156112da5750858301515b600019600386901b1c1916600185901b178555611286565b600085815260208120601f198616915b8281101561132157888601518255948401946001909101908401611302565b508582101561133f5787850151600019600388901b60f8161c191681555b5050505050600190811b01905550565b6040815260006113626040830185610fcc565b90508260208301529392505050565b634e487b7160e01b600052601160045260246000fd5b8181038181111561139a5761139a611371565b92915050565b808202811582820484141761139a5761139a611371565b6000826113d457634e487b7160e01b600052601260045260246000fd5b500490565b8082018082111561139a5761139a61137156fea2646970667358221220e6743346b64e51566dbd555ab45fdbbf3236a8df8245adf583fe4d2de92f6a8264736f6c63430008140033",
  "linkReferences": {},
  "deployedLinkReferences": {}
}